{
  "contractName": "Portfolio",
  "abi": [
    {
      "constant": true,
      "inputs": [],
      "name": "ownerName",
      "outputs": [
        {
          "name": "",
          "type": "string"
        }
      ],
      "payable": false,
      "stateMutability": "view",
      "type": "function"
    },
    {
      "constant": true,
      "inputs": [],
      "name": "ownerAddress",
      "outputs": [
        {
          "name": "",
          "type": "address"
        }
      ],
      "payable": false,
      "stateMutability": "view",
      "type": "function"
    },
    {
      "constant": true,
      "inputs": [],
      "name": "assetsCount",
      "outputs": [
        {
          "name": "",
          "type": "uint256"
        }
      ],
      "payable": false,
      "stateMutability": "view",
      "type": "function"
    },
    {
      "constant": true,
      "inputs": [
        {
          "name": "",
          "type": "uint256"
        }
      ],
      "name": "assets",
      "outputs": [
        {
          "name": "id",
          "type": "uint256"
        },
        {
          "name": "name",
          "type": "string"
        },
        {
          "name": "numUnits",
          "type": "uint256"
        }
      ],
      "payable": false,
      "stateMutability": "view",
      "type": "function"
    },
    {
      "inputs": [
        {
          "name": "_ownerAddress",
          "type": "address"
        },
        {
          "name": "_ownerName",
          "type": "string"
        }
      ],
      "payable": false,
      "stateMutability": "nonpayable",
      "type": "constructor"
    }
  ],
  "bytecode": "0x608060405234801561001057600080fd5b506040516105533803806105538339818101604052604081101561003357600080fd5b8101908080519060200190929190805164010000000081111561005557600080fd5b8281019050602081018481111561006b57600080fd5b815185600182028301116401000000008211171561008857600080fd5b5050929190505050816000806101000a81548173ffffffffffffffffffffffffffffffffffffffff021916908373ffffffffffffffffffffffffffffffffffffffff16021790555080600190805190602001906100e69291906100ee565b505050610193565b828054600181600116156101000203166002900490600052602060002090601f016020900481019282601f1061012f57805160ff191683800117855561015d565b8280016001018555821561015d579182015b8281111561015c578251825591602001919060010190610141565b5b50905061016a919061016e565b5090565b61019091905b8082111561018c576000816000905550600101610174565b5090565b90565b6103b1806101a26000396000f3fe608060405234801561001057600080fd5b506004361061004c5760003560e01c806365ac2320146100515780638f84aa09146100d4578063cd9df1901461011e578063cf35bdd01461013c575b600080fd5b6100596101f1565b6040518080602001828103825283818151815260200191508051906020019080838360005b8381101561009957808201518184015260208101905061007e565b50505050905090810190601f1680156100c65780820380516001836020036101000a031916815260200191505b509250505060405180910390f35b6100dc61028f565b604051808273ffffffffffffffffffffffffffffffffffffffff1673ffffffffffffffffffffffffffffffffffffffff16815260200191505060405180910390f35b6101266102b4565b6040518082815260200191505060405180910390f35b6101686004803603602081101561015257600080fd5b81019080803590602001909291905050506102ba565b6040518084815260200180602001838152602001828103825284818151815260200191508051906020019080838360005b838110156101b4578082015181840152602081019050610199565b50505050905090810190601f1680156101e15780820380516001836020036101000a031916815260200191505b5094505050505060405180910390f35b60018054600181600116156101000203166002900480601f0160208091040260200160405190810160405280929190818152602001828054600181600116156101000203166002900480156102875780601f1061025c57610100808354040283529160200191610287565b820191906000526020600020905b81548152906001019060200180831161026a57829003601f168201915b505050505081565b6000809054906101000a900473ffffffffffffffffffffffffffffffffffffffff1681565b60035481565b6002602052806000526040600020600091509050806000015490806001018054600181600116156101000203166002900480601f01602080910402602001604051908101604052809291908181526020018280546001816001161561010002031660029004801561036c5780601f106103415761010080835404028352916020019161036c565b820191906000526020600020905b81548152906001019060200180831161034f57829003601f168201915b505050505090806002015490508356fea265627a7a72305820c1718dfa56c0a8cfcc1e68d5956153031f6500d93f863a4988e984dfc5f9cb2564736f6c634300050a0032",
  "source": "pragma solidity 0.5.10;\r\n\r\ncontract Portfolio {\r\n    //portfolio variables\r\n    address public ownerAddress; //Ethereum address\r\n    string public ownerName;\r\n\r\n    // Model an Asset\r\n    struct Asset {\r\n        uint id;\r\n        string name;\r\n        uint numUnits;\r\n    }\r\n\r\n    // Store Assets\r\n\r\n    // Fetch list of Assets\r\n    mapping(uint => Asset) public assets; //this is an key-value pair array that maps the id to the Asset structs\r\n\r\n    // Store Assets Count\r\n    //Need to store the asset/transaction count as there is no way to find the length of the mapping array or iterate through it\r\n    uint public assetsCount;\r\n\r\n    //constructors are optional in this version of Solidity\r\n    //constructor function is not deployed to the blockchain\r\n    constructor (address _ownerAddress, string memory _ownerName) public {\r\n        ownerAddress = _ownerAddress;\r\n        ownerName = _ownerName;\r\n    }\r\n\r\n    //Add Assets. underscore to indicate local variable\r\n    //storage saves the name string to contract storage and it can persist between functions\r\n    //memory is cheaper\r\n    function addAsset (string memory _name, uint _numUnits) private {\r\n        assetsCount++;\r\n        assets[assetsCount] = Asset(assetsCount, _name, _numUnits);\r\n    }\r\n}",
  "sourcePath": "D:/Blockchain Projects/FinancialPortfolioChain/contracts/Portfolio.sol",
  "compiler": {
    "name": "solc",
    "version": "0.5.10+commit.5a6ea5b1.Emscripten.clang"
  },
  "schemaVersion": "3.0.15",
  "updatedAt": "2019-09-13T06:32:56.403Z",
  "devdoc": {
    "methods": {}
  },
  "userdoc": {
    "methods": {}
  }
}